{
  "_format": "hh-sol-artifact-1",
  "contractName": "MemberNFT",
  "sourceName": "contracts/MemberNFT.sol",
  "abi": [
    {
      "inputs": [],
      "stateMutability": "nonpayable",
      "type": "constructor"
    },
    {
      "anonymous": false,
      "inputs": [
        {
          "indexed": true,
          "internalType": "address",
          "name": "owner",
          "type": "address"
        },
        {
          "indexed": true,
          "internalType": "address",
          "name": "approved",
          "type": "address"
        },
        {
          "indexed": true,
          "internalType": "uint256",
          "name": "tokenId",
          "type": "uint256"
        }
      ],
      "name": "Approval",
      "type": "event"
    },
    {
      "anonymous": false,
      "inputs": [
        {
          "indexed": true,
          "internalType": "address",
          "name": "owner",
          "type": "address"
        },
        {
          "indexed": true,
          "internalType": "address",
          "name": "operator",
          "type": "address"
        },
        {
          "indexed": false,
          "internalType": "bool",
          "name": "approved",
          "type": "bool"
        }
      ],
      "name": "ApprovalForAll",
      "type": "event"
    },
    {
      "anonymous": false,
      "inputs": [
        {
          "indexed": true,
          "internalType": "address",
          "name": "previousOwner",
          "type": "address"
        },
        {
          "indexed": true,
          "internalType": "address",
          "name": "newOwner",
          "type": "address"
        }
      ],
      "name": "OwnershipTransferred",
      "type": "event"
    },
    {
      "anonymous": false,
      "inputs": [
        {
          "indexed": true,
          "internalType": "address",
          "name": "to",
          "type": "address"
        },
        {
          "indexed": false,
          "internalType": "uint256",
          "name": "tokenId",
          "type": "uint256"
        },
        {
          "indexed": false,
          "internalType": "string",
          "name": "uri",
          "type": "string"
        }
      ],
      "name": "TokenURIChanged",
      "type": "event"
    },
    {
      "anonymous": false,
      "inputs": [
        {
          "indexed": true,
          "internalType": "address",
          "name": "from",
          "type": "address"
        },
        {
          "indexed": true,
          "internalType": "address",
          "name": "to",
          "type": "address"
        },
        {
          "indexed": true,
          "internalType": "uint256",
          "name": "tokenId",
          "type": "uint256"
        }
      ],
      "name": "Transfer",
      "type": "event"
    },
    {
      "inputs": [
        {
          "internalType": "address",
          "name": "to",
          "type": "address"
        },
        {
          "internalType": "uint256",
          "name": "tokenId",
          "type": "uint256"
        }
      ],
      "name": "approve",
      "outputs": [],
      "stateMutability": "nonpayable",
      "type": "function"
    },
    {
      "inputs": [
        {
          "internalType": "address",
          "name": "owner",
          "type": "address"
        }
      ],
      "name": "balanceOf",
      "outputs": [
        {
          "internalType": "uint256",
          "name": "",
          "type": "uint256"
        }
      ],
      "stateMutability": "view",
      "type": "function"
    },
    {
      "inputs": [
        {
          "internalType": "uint256",
          "name": "tokenId",
          "type": "uint256"
        }
      ],
      "name": "getApproved",
      "outputs": [
        {
          "internalType": "address",
          "name": "",
          "type": "address"
        }
      ],
      "stateMutability": "view",
      "type": "function"
    },
    {
      "inputs": [
        {
          "internalType": "address",
          "name": "owner",
          "type": "address"
        },
        {
          "internalType": "address",
          "name": "operator",
          "type": "address"
        }
      ],
      "name": "isApprovedForAll",
      "outputs": [
        {
          "internalType": "bool",
          "name": "",
          "type": "bool"
        }
      ],
      "stateMutability": "view",
      "type": "function"
    },
    {
      "inputs": [],
      "name": "name",
      "outputs": [
        {
          "internalType": "string",
          "name": "",
          "type": "string"
        }
      ],
      "stateMutability": "view",
      "type": "function"
    },
    {
      "inputs": [
        {
          "internalType": "address",
          "name": "to",
          "type": "address"
        },
        {
          "internalType": "string",
          "name": "uri",
          "type": "string"
        }
      ],
      "name": "nftMint",
      "outputs": [],
      "stateMutability": "nonpayable",
      "type": "function"
    },
    {
      "inputs": [],
      "name": "owner",
      "outputs": [
        {
          "internalType": "address",
          "name": "",
          "type": "address"
        }
      ],
      "stateMutability": "view",
      "type": "function"
    },
    {
      "inputs": [
        {
          "internalType": "uint256",
          "name": "tokenId",
          "type": "uint256"
        }
      ],
      "name": "ownerOf",
      "outputs": [
        {
          "internalType": "address",
          "name": "",
          "type": "address"
        }
      ],
      "stateMutability": "view",
      "type": "function"
    },
    {
      "inputs": [],
      "name": "renounceOwnership",
      "outputs": [],
      "stateMutability": "nonpayable",
      "type": "function"
    },
    {
      "inputs": [
        {
          "internalType": "address",
          "name": "from",
          "type": "address"
        },
        {
          "internalType": "address",
          "name": "to",
          "type": "address"
        },
        {
          "internalType": "uint256",
          "name": "tokenId",
          "type": "uint256"
        }
      ],
      "name": "safeTransferFrom",
      "outputs": [],
      "stateMutability": "nonpayable",
      "type": "function"
    },
    {
      "inputs": [
        {
          "internalType": "address",
          "name": "from",
          "type": "address"
        },
        {
          "internalType": "address",
          "name": "to",
          "type": "address"
        },
        {
          "internalType": "uint256",
          "name": "tokenId",
          "type": "uint256"
        },
        {
          "internalType": "bytes",
          "name": "data",
          "type": "bytes"
        }
      ],
      "name": "safeTransferFrom",
      "outputs": [],
      "stateMutability": "nonpayable",
      "type": "function"
    },
    {
      "inputs": [
        {
          "internalType": "address",
          "name": "operator",
          "type": "address"
        },
        {
          "internalType": "bool",
          "name": "approved",
          "type": "bool"
        }
      ],
      "name": "setApprovalForAll",
      "outputs": [],
      "stateMutability": "nonpayable",
      "type": "function"
    },
    {
      "inputs": [
        {
          "internalType": "bytes4",
          "name": "interfaceId",
          "type": "bytes4"
        }
      ],
      "name": "supportsInterface",
      "outputs": [
        {
          "internalType": "bool",
          "name": "",
          "type": "bool"
        }
      ],
      "stateMutability": "view",
      "type": "function"
    },
    {
      "inputs": [],
      "name": "symbol",
      "outputs": [
        {
          "internalType": "string",
          "name": "",
          "type": "string"
        }
      ],
      "stateMutability": "view",
      "type": "function"
    },
    {
      "inputs": [
        {
          "internalType": "uint256",
          "name": "index",
          "type": "uint256"
        }
      ],
      "name": "tokenByIndex",
      "outputs": [
        {
          "internalType": "uint256",
          "name": "",
          "type": "uint256"
        }
      ],
      "stateMutability": "view",
      "type": "function"
    },
    {
      "inputs": [
        {
          "internalType": "address",
          "name": "owner",
          "type": "address"
        },
        {
          "internalType": "uint256",
          "name": "index",
          "type": "uint256"
        }
      ],
      "name": "tokenOfOwnerByIndex",
      "outputs": [
        {
          "internalType": "uint256",
          "name": "",
          "type": "uint256"
        }
      ],
      "stateMutability": "view",
      "type": "function"
    },
    {
      "inputs": [
        {
          "internalType": "uint256",
          "name": "tokenId",
          "type": "uint256"
        }
      ],
      "name": "tokenURI",
      "outputs": [
        {
          "internalType": "string",
          "name": "",
          "type": "string"
        }
      ],
      "stateMutability": "view",
      "type": "function"
    },
    {
      "inputs": [],
      "name": "totalSupply",
      "outputs": [
        {
          "internalType": "uint256",
          "name": "",
          "type": "uint256"
        }
      ],
      "stateMutability": "view",
      "type": "function"
    },
    {
      "inputs": [
        {
          "internalType": "address",
          "name": "from",
          "type": "address"
        },
        {
          "internalType": "address",
          "name": "to",
          "type": "address"
        },
        {
          "internalType": "uint256",
          "name": "tokenId",
          "type": "uint256"
        }
      ],
      "name": "transferFrom",
      "outputs": [],
      "stateMutability": "nonpayable",
      "type": "function"
    },
    {
      "inputs": [
        {
          "internalType": "address",
          "name": "newOwner",
          "type": "address"
        }
      ],
      "name": "transferOwnership",
      "outputs": [],
      "stateMutability": "nonpayable",
      "type": "function"
    }
  ],
  "bytecode": "0x60806040523480156200001157600080fd5b506040518060400160405280600981526020017f4d656d6265724e465400000000000000000000000000000000000000000000008152506040518060400160405280600381526020017f4d454d0000000000000000000000000000000000000000000000000000000000815250816000908051906020019062000096929190620001a6565b508060019080519060200190620000af929190620001a6565b505050620000d2620000c6620000d860201b60201c565b620000e060201b60201c565b620002bb565b600033905090565b6000600b60009054906101000a900473ffffffffffffffffffffffffffffffffffffffff16905081600b60006101000a81548173ffffffffffffffffffffffffffffffffffffffff021916908373ffffffffffffffffffffffffffffffffffffffff1602179055508173ffffffffffffffffffffffffffffffffffffffff168173ffffffffffffffffffffffffffffffffffffffff167f8be0079c531659141344cd1fd0a4f28419497f9722a3daafe3b4186f6b6457e060405160405180910390a35050565b828054620001b49062000285565b90600052602060002090601f016020900481019282620001d8576000855562000224565b82601f10620001f357805160ff191683800117855562000224565b8280016001018555821562000224579182015b828111156200022357825182559160200191906001019062000206565b5b50905062000233919062000237565b5090565b5b808211156200025257600081600090555060010162000238565b5090565b7f4e487b7100000000000000000000000000000000000000000000000000000000600052602260045260246000fd5b600060028204905060018216806200029e57607f821691505b60208210811415620002b557620002b462000256565b5b50919050565b61349480620002cb6000396000f3fe608060405234801561001057600080fd5b506004361061012c5760003560e01c80636352211e116100ad578063a22cb46511610071578063a22cb46514610343578063b88d4fde1461035f578063c87b56dd1461037b578063e985e9c5146103ab578063f2fde38b146103db5761012c565b80636352211e1461029d57806370a08231146102cd578063715018a6146102fd5780638da5cb5b1461030757806395d89b41146103255761012c565b806323b872dd116100f457806323b872dd146101e95780632f745c591461020557806330e960891461023557806342842e0e146102515780634f6ccce71461026d5761012c565b806301ffc9a71461013157806306fdde0314610161578063081812fc1461017f578063095ea7b3146101af57806318160ddd146101cb575b600080fd5b61014b600480360381019061014691906121f1565b6103f7565b6040516101589190612239565b60405180910390f35b610169610409565b60405161017691906122ed565b60405180910390f35b61019960048036038101906101949190612345565b61049b565b6040516101a691906123b3565b60405180910390f35b6101c960048036038101906101c491906123fa565b6104e1565b005b6101d36105f9565b6040516101e09190612449565b60405180910390f35b61020360048036038101906101fe9190612464565b610606565b005b61021f600480360381019061021a91906123fa565b610666565b60405161022c9190612449565b60405180910390f35b61024f600480360381019061024a919061251c565b61070b565b005b61026b60048036038101906102669190612464565b6107db565b005b61028760048036038101906102829190612345565b6107fb565b6040516102949190612449565b60405180910390f35b6102b760048036038101906102b29190612345565b61086c565b6040516102c491906123b3565b60405180910390f35b6102e760048036038101906102e2919061257c565b61091e565b6040516102f49190612449565b60405180910390f35b6103056109d6565b005b61030f6109ea565b60405161031c91906123b3565b60405180910390f35b61032d610a14565b60405161033a91906122ed565b60405180910390f35b61035d600480360381019061035891906125d5565b610aa6565b005b61037960048036038101906103749190612745565b610abc565b005b61039560048036038101906103909190612345565b610b1e565b6040516103a291906122ed565b60405180910390f35b6103c560048036038101906103c091906127c8565b610b30565b6040516103d29190612239565b60405180910390f35b6103f560048036038101906103f0919061257c565b610bc4565b005b600061040282610c48565b9050919050565b60606000805461041890612837565b80601f016020809104026020016040519081016040528092919081815260200182805461044490612837565b80156104915780601f1061046657610100808354040283529160200191610491565b820191906000526020600020905b81548152906001019060200180831161047457829003601f168201915b5050505050905090565b60006104a682610cc2565b6004600083815260200190815260200160002060009054906101000a900473ffffffffffffffffffffffffffffffffffffffff169050919050565b60006104ec8261086c565b90508073ffffffffffffffffffffffffffffffffffffffff168373ffffffffffffffffffffffffffffffffffffffff16141561055d576040517f08c379a0000000000000000000000000000000000000000000000000000000008152600401610554906128db565b60405180910390fd5b8073ffffffffffffffffffffffffffffffffffffffff1661057c610d0d565b73ffffffffffffffffffffffffffffffffffffffff1614806105ab57506105aa816105a5610d0d565b610b30565b5b6105ea576040517f08c379a00000000000000000000000000000000000000000000000000000000081526004016105e19061296d565b60405180910390fd5b6105f48383610d15565b505050565b6000600880549050905090565b610617610611610d0d565b82610dce565b610656576040517f08c379a000000000000000000000000000000000000000000000000000000000815260040161064d906129ff565b60405180910390fd5b610661838383610e63565b505050565b60006106718361091e565b82106106b2576040517f08c379a00000000000000000000000000000000000000000000000000000000081526004016106a990612a91565b60405180910390fd5b600660008473ffffffffffffffffffffffffffffffffffffffff1673ffffffffffffffffffffffffffffffffffffffff168152602001908152602001600020600083815260200190815260200160002054905092915050565b6107136110ca565b61071d600c611148565b6000610729600c61115e565b9050610735848261116c565b6107838184848080601f016020809104026020016040519081016040528093929190818152602001838380828437600081840152601f19601f82011690508083019250505050505050611346565b8373ffffffffffffffffffffffffffffffffffffffff167f8b781fcc9d1a958b4e7e04390a81f45bdec2dc61341e7b423a537074275dc70d8285856040516107cd93929190612ade565b60405180910390a250505050565b6107f683838360405180602001604052806000815250610abc565b505050565b60006108056105f9565b8210610846576040517f08c379a000000000000000000000000000000000000000000000000000000000815260040161083d90612b82565b60405180910390fd5b6008828154811061085a57610859612ba2565b5b90600052602060002001549050919050565b6000806002600084815260200190815260200160002060009054906101000a900473ffffffffffffffffffffffffffffffffffffffff169050600073ffffffffffffffffffffffffffffffffffffffff168173ffffffffffffffffffffffffffffffffffffffff161415610915576040517f08c379a000000000000000000000000000000000000000000000000000000000815260040161090c90612c1d565b60405180910390fd5b80915050919050565b60008073ffffffffffffffffffffffffffffffffffffffff168273ffffffffffffffffffffffffffffffffffffffff16141561098f576040517f08c379a000000000000000000000000000000000000000000000000000000000815260040161098690612caf565b60405180910390fd5b600360008373ffffffffffffffffffffffffffffffffffffffff1673ffffffffffffffffffffffffffffffffffffffff168152602001908152602001600020549050919050565b6109de6110ca565b6109e860006113ba565b565b6000600b60009054906101000a900473ffffffffffffffffffffffffffffffffffffffff16905090565b606060018054610a2390612837565b80601f0160208091040260200160405190810160405280929190818152602001828054610a4f90612837565b8015610a9c5780601f10610a7157610100808354040283529160200191610a9c565b820191906000526020600020905b815481529060010190602001808311610a7f57829003601f168201915b5050505050905090565b610ab8610ab1610d0d565b8383611480565b5050565b610acd610ac7610d0d565b83610dce565b610b0c576040517f08c379a0000000000000000000000000000000000000000000000000000000008152600401610b03906129ff565b60405180910390fd5b610b18848484846115ed565b50505050565b6060610b2982611649565b9050919050565b6000600560008473ffffffffffffffffffffffffffffffffffffffff1673ffffffffffffffffffffffffffffffffffffffff16815260200190815260200160002060008373ffffffffffffffffffffffffffffffffffffffff1673ffffffffffffffffffffffffffffffffffffffff16815260200190815260200160002060009054906101000a900460ff16905092915050565b610bcc6110ca565b600073ffffffffffffffffffffffffffffffffffffffff168173ffffffffffffffffffffffffffffffffffffffff161415610c3c576040517f08c379a0000000000000000000000000000000000000000000000000000000008152600401610c3390612d41565b60405180910390fd5b610c45816113ba565b50565b60007f780e9d63000000000000000000000000000000000000000000000000000000007bffffffffffffffffffffffffffffffffffffffffffffffffffffffff1916827bffffffffffffffffffffffffffffffffffffffffffffffffffffffff19161480610cbb5750610cba8261175c565b5b9050919050565b610ccb8161183e565b610d0a576040517f08c379a0000000000000000000000000000000000000000000000000000000008152600401610d0190612c1d565b60405180910390fd5b50565b600033905090565b816004600083815260200190815260200160002060006101000a81548173ffffffffffffffffffffffffffffffffffffffff021916908373ffffffffffffffffffffffffffffffffffffffff160217905550808273ffffffffffffffffffffffffffffffffffffffff16610d888361086c565b73ffffffffffffffffffffffffffffffffffffffff167f8c5be1e5ebec7d5bd14f71427d1e84f3dd0314c0f7b2291e5b200ac8c7c3b92560405160405180910390a45050565b600080610dda8361086c565b90508073ffffffffffffffffffffffffffffffffffffffff168473ffffffffffffffffffffffffffffffffffffffff161480610e1c5750610e1b8185610b30565b5b80610e5a57508373ffffffffffffffffffffffffffffffffffffffff16610e428461049b565b73ffffffffffffffffffffffffffffffffffffffff16145b91505092915050565b8273ffffffffffffffffffffffffffffffffffffffff16610e838261086c565b73ffffffffffffffffffffffffffffffffffffffff1614610ed9576040517f08c379a0000000000000000000000000000000000000000000000000000000008152600401610ed090612dd3565b60405180910390fd5b600073ffffffffffffffffffffffffffffffffffffffff168273ffffffffffffffffffffffffffffffffffffffff161415610f49576040517f08c379a0000000000000000000000000000000000000000000000000000000008152600401610f4090612e65565b60405180910390fd5b610f548383836118aa565b610f5f600082610d15565b6001600360008573ffffffffffffffffffffffffffffffffffffffff1673ffffffffffffffffffffffffffffffffffffffff1681526020019081526020016000206000828254610faf9190612eb4565b925050819055506001600360008473ffffffffffffffffffffffffffffffffffffffff1673ffffffffffffffffffffffffffffffffffffffff16815260200190815260200160002060008282546110069190612ee8565b92505081905550816002600083815260200190815260200160002060006101000a81548173ffffffffffffffffffffffffffffffffffffffff021916908373ffffffffffffffffffffffffffffffffffffffff160217905550808273ffffffffffffffffffffffffffffffffffffffff168473ffffffffffffffffffffffffffffffffffffffff167fddf252ad1be2c89b69c2b068fc378daa952ba7f163c4a11628f55a4df523b3ef60405160405180910390a46110c58383836118ba565b505050565b6110d2610d0d565b73ffffffffffffffffffffffffffffffffffffffff166110f06109ea565b73ffffffffffffffffffffffffffffffffffffffff1614611146576040517f08c379a000000000000000000000000000000000000000000000000000000000815260040161113d90612f8a565b60405180910390fd5b565b6001816000016000828254019250508190555050565b600081600001549050919050565b600073ffffffffffffffffffffffffffffffffffffffff168273ffffffffffffffffffffffffffffffffffffffff1614156111dc576040517f08c379a00000000000000000000000000000000000000000000000000000000081526004016111d390612ff6565b60405180910390fd5b6111e58161183e565b15611225576040517f08c379a000000000000000000000000000000000000000000000000000000000815260040161121c90613062565b60405180910390fd5b611231600083836118aa565b6001600360008473ffffffffffffffffffffffffffffffffffffffff1673ffffffffffffffffffffffffffffffffffffffff16815260200190815260200160002060008282546112819190612ee8565b92505081905550816002600083815260200190815260200160002060006101000a81548173ffffffffffffffffffffffffffffffffffffffff021916908373ffffffffffffffffffffffffffffffffffffffff160217905550808273ffffffffffffffffffffffffffffffffffffffff16600073ffffffffffffffffffffffffffffffffffffffff167fddf252ad1be2c89b69c2b068fc378daa952ba7f163c4a11628f55a4df523b3ef60405160405180910390a4611342600083836118ba565b5050565b61134f8261183e565b61138e576040517f08c379a0000000000000000000000000000000000000000000000000000000008152600401611385906130f4565b60405180910390fd5b80600a600084815260200190815260200160002090805190602001906113b59291906120e2565b505050565b6000600b60009054906101000a900473ffffffffffffffffffffffffffffffffffffffff16905081600b60006101000a81548173ffffffffffffffffffffffffffffffffffffffff021916908373ffffffffffffffffffffffffffffffffffffffff1602179055508173ffffffffffffffffffffffffffffffffffffffff168173ffffffffffffffffffffffffffffffffffffffff167f8be0079c531659141344cd1fd0a4f28419497f9722a3daafe3b4186f6b6457e060405160405180910390a35050565b8173ffffffffffffffffffffffffffffffffffffffff168373ffffffffffffffffffffffffffffffffffffffff1614156114ef576040517f08c379a00000000000000000000000000000000000000000000000000000000081526004016114e690613160565b60405180910390fd5b80600560008573ffffffffffffffffffffffffffffffffffffffff1673ffffffffffffffffffffffffffffffffffffffff16815260200190815260200160002060008473ffffffffffffffffffffffffffffffffffffffff1673ffffffffffffffffffffffffffffffffffffffff16815260200190815260200160002060006101000a81548160ff0219169083151502179055508173ffffffffffffffffffffffffffffffffffffffff168373ffffffffffffffffffffffffffffffffffffffff167f17307eab39ab6107e8899845ad3d59bd9653f200f220920489ca2b5937696c31836040516115e09190612239565b60405180910390a3505050565b6115f8848484610e63565b611604848484846118bf565b611643576040517f08c379a000000000000000000000000000000000000000000000000000000000815260040161163a906131f2565b60405180910390fd5b50505050565b606061165482610cc2565b6000600a6000848152602001908152602001600020805461167490612837565b80601f01602080910402602001604051908101604052809291908181526020018280546116a090612837565b80156116ed5780601f106116c2576101008083540402835291602001916116ed565b820191906000526020600020905b8154815290600101906020018083116116d057829003601f168201915b5050505050905060006116fe611a56565b9050600081511415611714578192505050611757565b60008251111561174957808260405160200161173192919061324e565b60405160208183030381529060405292505050611757565b61175284611a6d565b925050505b919050565b60007f80ac58cd000000000000000000000000000000000000000000000000000000007bffffffffffffffffffffffffffffffffffffffffffffffffffffffff1916827bffffffffffffffffffffffffffffffffffffffffffffffffffffffff1916148061182757507f5b5e139f000000000000000000000000000000000000000000000000000000007bffffffffffffffffffffffffffffffffffffffffffffffffffffffff1916827bffffffffffffffffffffffffffffffffffffffffffffffffffffffff1916145b80611837575061183682611ad5565b5b9050919050565b60008073ffffffffffffffffffffffffffffffffffffffff166002600084815260200190815260200160002060009054906101000a900473ffffffffffffffffffffffffffffffffffffffff1673ffffffffffffffffffffffffffffffffffffffff1614159050919050565b6118b5838383611b3f565b505050565b505050565b60006118e08473ffffffffffffffffffffffffffffffffffffffff16611c53565b15611a49578373ffffffffffffffffffffffffffffffffffffffff1663150b7a02611909610d0d565b8786866040518563ffffffff1660e01b815260040161192b94939291906132c7565b602060405180830381600087803b15801561194557600080fd5b505af192505050801561197657506040513d601f19601f820116820180604052508101906119739190613328565b60015b6119f9573d80600081146119a6576040519150601f19603f3d011682016040523d82523d6000602084013e6119ab565b606091505b506000815114156119f1576040517f08c379a00000000000000000000000000000000000000000000000000000000081526004016119e8906131f2565b60405180910390fd5b805181602001fd5b63150b7a0260e01b7bffffffffffffffffffffffffffffffffffffffffffffffffffffffff1916817bffffffffffffffffffffffffffffffffffffffffffffffffffffffff191614915050611a4e565b600190505b949350505050565b606060405180602001604052806000815250905090565b6060611a7882610cc2565b6000611a82611a56565b90506000815111611aa25760405180602001604052806000815250611acd565b80611aac84611c76565b604051602001611abd92919061324e565b6040516020818303038152906040525b915050919050565b60007f01ffc9a7000000000000000000000000000000000000000000000000000000007bffffffffffffffffffffffffffffffffffffffffffffffffffffffff1916827bffffffffffffffffffffffffffffffffffffffffffffffffffffffff1916149050919050565b611b4a838383611dd7565b600073ffffffffffffffffffffffffffffffffffffffff168373ffffffffffffffffffffffffffffffffffffffff161415611b8d57611b8881611ddc565b611bcc565b8173ffffffffffffffffffffffffffffffffffffffff168373ffffffffffffffffffffffffffffffffffffffff1614611bcb57611bca8382611e25565b5b5b600073ffffffffffffffffffffffffffffffffffffffff168273ffffffffffffffffffffffffffffffffffffffff161415611c0f57611c0a81611f92565b611c4e565b8273ffffffffffffffffffffffffffffffffffffffff168273ffffffffffffffffffffffffffffffffffffffff1614611c4d57611c4c8282612063565b5b5b505050565b6000808273ffffffffffffffffffffffffffffffffffffffff163b119050919050565b60606000821415611cbe576040518060400160405280600181526020017f30000000000000000000000000000000000000000000000000000000000000008152509050611dd2565b600082905060005b60008214611cf0578080611cd990613355565b915050600a82611ce991906133cd565b9150611cc6565b60008167ffffffffffffffff811115611d0c57611d0b61261a565b5b6040519080825280601f01601f191660200182016040528015611d3e5781602001600182028036833780820191505090505b5090505b60008514611dcb57600182611d579190612eb4565b9150600a85611d6691906133fe565b6030611d729190612ee8565b60f81b818381518110611d8857611d87612ba2565b5b60200101907effffffffffffffffffffffffffffffffffffffffffffffffffffffffffffff1916908160001a905350600a85611dc491906133cd565b9450611d42565b8093505050505b919050565b505050565b6008805490506009600083815260200190815260200160002081905550600881908060018154018082558091505060019003906000526020600020016000909190919091505550565b60006001611e328461091e565b611e3c9190612eb4565b9050600060076000848152602001908152602001600020549050818114611f21576000600660008673ffffffffffffffffffffffffffffffffffffffff1673ffffffffffffffffffffffffffffffffffffffff168152602001908152602001600020600084815260200190815260200160002054905080600660008773ffffffffffffffffffffffffffffffffffffffff1673ffffffffffffffffffffffffffffffffffffffff168152602001908152602001600020600084815260200190815260200160002081905550816007600083815260200190815260200160002081905550505b6007600084815260200190815260200160002060009055600660008573ffffffffffffffffffffffffffffffffffffffff1673ffffffffffffffffffffffffffffffffffffffff16815260200190815260200160002060008381526020019081526020016000206000905550505050565b60006001600880549050611fa69190612eb4565b9050600060096000848152602001908152602001600020549050600060088381548110611fd657611fd5612ba2565b5b906000526020600020015490508060088381548110611ff857611ff7612ba2565b5b9060005260206000200181905550816009600083815260200190815260200160002081905550600960008581526020019081526020016000206000905560088054806120475761204661342f565b5b6001900381819060005260206000200160009055905550505050565b600061206e8361091e565b905081600660008573ffffffffffffffffffffffffffffffffffffffff1673ffffffffffffffffffffffffffffffffffffffff168152602001908152602001600020600083815260200190815260200160002081905550806007600084815260200190815260200160002081905550505050565b8280546120ee90612837565b90600052602060002090601f0160209004810192826121105760008555612157565b82601f1061212957805160ff1916838001178555612157565b82800160010185558215612157579182015b8281111561215657825182559160200191906001019061213b565b5b5090506121649190612168565b5090565b5b80821115612181576000816000905550600101612169565b5090565b6000604051905090565b600080fd5b600080fd5b60007fffffffff0000000000000000000000000000000000000000000000000000000082169050919050565b6121ce81612199565b81146121d957600080fd5b50565b6000813590506121eb816121c5565b92915050565b6000602082840312156122075761220661218f565b5b6000612215848285016121dc565b91505092915050565b60008115159050919050565b6122338161221e565b82525050565b600060208201905061224e600083018461222a565b92915050565b600081519050919050565b600082825260208201905092915050565b60005b8381101561228e578082015181840152602081019050612273565b8381111561229d576000848401525b50505050565b6000601f19601f8301169050919050565b60006122bf82612254565b6122c9818561225f565b93506122d9818560208601612270565b6122e2816122a3565b840191505092915050565b6000602082019050818103600083015261230781846122b4565b905092915050565b6000819050919050565b6123228161230f565b811461232d57600080fd5b50565b60008135905061233f81612319565b92915050565b60006020828403121561235b5761235a61218f565b5b600061236984828501612330565b91505092915050565b600073ffffffffffffffffffffffffffffffffffffffff82169050919050565b600061239d82612372565b9050919050565b6123ad81612392565b82525050565b60006020820190506123c860008301846123a4565b92915050565b6123d781612392565b81146123e257600080fd5b50565b6000813590506123f4816123ce565b92915050565b600080604083850312156124115761241061218f565b5b600061241f858286016123e5565b925050602061243085828601612330565b9150509250929050565b6124438161230f565b82525050565b600060208201905061245e600083018461243a565b92915050565b60008060006060848603121561247d5761247c61218f565b5b600061248b868287016123e5565b935050602061249c868287016123e5565b92505060406124ad86828701612330565b9150509250925092565b600080fd5b600080fd5b600080fd5b60008083601f8401126124dc576124db6124b7565b5b8235905067ffffffffffffffff8111156124f9576124f86124bc565b5b602083019150836001820283011115612515576125146124c1565b5b9250929050565b6000806000604084860312156125355761253461218f565b5b6000612543868287016123e5565b935050602084013567ffffffffffffffff81111561256457612563612194565b5b612570868287016124c6565b92509250509250925092565b6000602082840312156125925761259161218f565b5b60006125a0848285016123e5565b91505092915050565b6125b28161221e565b81146125bd57600080fd5b50565b6000813590506125cf816125a9565b92915050565b600080604083850312156125ec576125eb61218f565b5b60006125fa858286016123e5565b925050602061260b858286016125c0565b9150509250929050565b600080fd5b7f4e487b7100000000000000000000000000000000000000000000000000000000600052604160045260246000fd5b612652826122a3565b810181811067ffffffffffffffff821117156126715761267061261a565b5b80604052505050565b6000612684612185565b90506126908282612649565b919050565b600067ffffffffffffffff8211156126b0576126af61261a565b5b6126b9826122a3565b9050602081019050919050565b82818337600083830152505050565b60006126e86126e384612695565b61267a565b90508281526020810184848401111561270457612703612615565b5b61270f8482856126c6565b509392505050565b600082601f83011261272c5761272b6124b7565b5b813561273c8482602086016126d5565b91505092915050565b6000806000806080858703121561275f5761275e61218f565b5b600061276d878288016123e5565b945050602061277e878288016123e5565b935050604061278f87828801612330565b925050606085013567ffffffffffffffff8111156127b0576127af612194565b5b6127bc87828801612717565b91505092959194509250565b600080604083850312156127df576127de61218f565b5b60006127ed858286016123e5565b92505060206127fe858286016123e5565b9150509250929050565b7f4e487b7100000000000000000000000000000000000000000000000000000000600052602260045260246000fd5b6000600282049050600182168061284f57607f821691505b6020821081141561286357612862612808565b5b50919050565b7f4552433732313a20617070726f76616c20746f2063757272656e74206f776e6560008201527f7200000000000000000000000000000000000000000000000000000000000000602082015250565b60006128c560218361225f565b91506128d082612869565b604082019050919050565b600060208201905081810360008301526128f4816128b8565b9050919050565b7f4552433732313a20617070726f76652063616c6c6572206973206e6f7420746f60008201527f6b656e206f776e6572206e6f7220617070726f76656420666f7220616c6c0000602082015250565b6000612957603e8361225f565b9150612962826128fb565b604082019050919050565b600060208201905081810360008301526129868161294a565b9050919050565b7f4552433732313a2063616c6c6572206973206e6f7420746f6b656e206f776e6560008201527f72206e6f7220617070726f766564000000000000000000000000000000000000602082015250565b60006129e9602e8361225f565b91506129f48261298d565b604082019050919050565b60006020820190508181036000830152612a18816129dc565b9050919050565b7f455243373231456e756d657261626c653a206f776e657220696e646578206f7560008201527f74206f6620626f756e6473000000000000000000000000000000000000000000602082015250565b6000612a7b602b8361225f565b9150612a8682612a1f565b604082019050919050565b60006020820190508181036000830152612aaa81612a6e565b9050919050565b6000612abd838561225f565b9350612aca8385846126c6565b612ad3836122a3565b840190509392505050565b6000604082019050612af3600083018661243a565b8181036020830152612b06818486612ab1565b9050949350505050565b7f455243373231456e756d657261626c653a20676c6f62616c20696e646578206f60008201527f7574206f6620626f756e64730000000000000000000000000000000000000000602082015250565b6000612b6c602c8361225f565b9150612b7782612b10565b604082019050919050565b60006020820190508181036000830152612b9b81612b5f565b9050919050565b7f4e487b7100000000000000000000000000000000000000000000000000000000600052603260045260246000fd5b7f4552433732313a20696e76616c696420746f6b656e2049440000000000000000600082015250565b6000612c0760188361225f565b9150612c1282612bd1565b602082019050919050565b60006020820190508181036000830152612c3681612bfa565b9050919050565b7f4552433732313a2061646472657373207a65726f206973206e6f74206120766160008201527f6c6964206f776e65720000000000000000000000000000000000000000000000602082015250565b6000612c9960298361225f565b9150612ca482612c3d565b604082019050919050565b60006020820190508181036000830152612cc881612c8c565b9050919050565b7f4f776e61626c653a206e6577206f776e657220697320746865207a65726f206160008201527f6464726573730000000000000000000000000000000000000000000000000000602082015250565b6000612d2b60268361225f565b9150612d3682612ccf565b604082019050919050565b60006020820190508181036000830152612d5a81612d1e565b9050919050565b7f4552433732313a207472616e736665722066726f6d20696e636f72726563742060008201527f6f776e6572000000000000000000000000000000000000000000000000000000602082015250565b6000612dbd60258361225f565b9150612dc882612d61565b604082019050919050565b60006020820190508181036000830152612dec81612db0565b9050919050565b7f4552433732313a207472616e7366657220746f20746865207a65726f2061646460008201527f7265737300000000000000000000000000000000000000000000000000000000602082015250565b6000612e4f60248361225f565b9150612e5a82612df3565b604082019050919050565b60006020820190508181036000830152612e7e81612e42565b9050919050565b7f4e487b7100000000000000000000000000000000000000000000000000000000600052601160045260246000fd5b6000612ebf8261230f565b9150612eca8361230f565b925082821015612edd57612edc612e85565b5b828203905092915050565b6000612ef38261230f565b9150612efe8361230f565b9250827fffffffffffffffffffffffffffffffffffffffffffffffffffffffffffffffff03821115612f3357612f32612e85565b5b828201905092915050565b7f4f776e61626c653a2063616c6c6572206973206e6f7420746865206f776e6572600082015250565b6000612f7460208361225f565b9150612f7f82612f3e565b602082019050919050565b60006020820190508181036000830152612fa381612f67565b9050919050565b7f4552433732313a206d696e7420746f20746865207a65726f2061646472657373600082015250565b6000612fe060208361225f565b9150612feb82612faa565b602082019050919050565b6000602082019050818103600083015261300f81612fd3565b9050919050565b7f4552433732313a20746f6b656e20616c7265616479206d696e74656400000000600082015250565b600061304c601c8361225f565b915061305782613016565b602082019050919050565b6000602082019050818103600083015261307b8161303f565b9050919050565b7f45524337323155524953746f726167653a2055524920736574206f66206e6f6e60008201527f6578697374656e7420746f6b656e000000000000000000000000000000000000602082015250565b60006130de602e8361225f565b91506130e982613082565b604082019050919050565b6000602082019050818103600083015261310d816130d1565b9050919050565b7f4552433732313a20617070726f766520746f2063616c6c657200000000000000600082015250565b600061314a60198361225f565b915061315582613114565b602082019050919050565b600060208201905081810360008301526131798161313d565b9050919050565b7f4552433732313a207472616e7366657220746f206e6f6e20455243373231526560008201527f63656976657220696d706c656d656e7465720000000000000000000000000000602082015250565b60006131dc60328361225f565b91506131e782613180565b604082019050919050565b6000602082019050818103600083015261320b816131cf565b9050919050565b600081905092915050565b600061322882612254565b6132328185613212565b9350613242818560208601612270565b80840191505092915050565b600061325a828561321d565b9150613266828461321d565b91508190509392505050565b600081519050919050565b600082825260208201905092915050565b600061329982613272565b6132a3818561327d565b93506132b3818560208601612270565b6132bc816122a3565b840191505092915050565b60006080820190506132dc60008301876123a4565b6132e960208301866123a4565b6132f6604083018561243a565b8181036060830152613308818461328e565b905095945050505050565b600081519050613322816121c5565b92915050565b60006020828403121561333e5761333d61218f565b5b600061334c84828501613313565b91505092915050565b60006133608261230f565b91507fffffffffffffffffffffffffffffffffffffffffffffffffffffffffffffffff82141561339357613392612e85565b5b600182019050919050565b7f4e487b7100000000000000000000000000000000000000000000000000000000600052601260045260246000fd5b60006133d88261230f565b91506133e38361230f565b9250826133f3576133f261339e565b5b828204905092915050565b60006134098261230f565b91506134148361230f565b9250826134245761342361339e565b5b828206905092915050565b7f4e487b7100000000000000000000000000000000000000000000000000000000600052603160045260246000fdfea26469706673582212208bf1be4e93f8484c20c64fe0371fc6bfc4084ff23f333fa518e6afe5abb7071b64736f6c63430008090033",
  "linkReferences": {},
  "deployedLinkReferences": {}
}